{
  "_format": "hh-sol-artifact-1",
  "contractName": "NFT",
  "sourceName": "src/backend/contracts/NFT.sol",
  "abi": [
    {
      "inputs": [],
      "stateMutability": "nonpayable",
      "type": "constructor"
    },
    {
      "anonymous": false,
      "inputs": [
        {
          "indexed": true,
          "internalType": "address",
          "name": "owner",
          "type": "address"
        },
        {
          "indexed": true,
          "internalType": "address",
          "name": "approved",
          "type": "address"
        },
        {
          "indexed": true,
          "internalType": "uint256",
          "name": "tokenId",
          "type": "uint256"
        }
      ],
      "name": "Approval",
      "type": "event"
    },
    {
      "anonymous": false,
      "inputs": [
        {
          "indexed": true,
          "internalType": "address",
          "name": "owner",
          "type": "address"
        },
        {
          "indexed": true,
          "internalType": "address",
          "name": "operator",
          "type": "address"
        },
        {
          "indexed": false,
          "internalType": "bool",
          "name": "approved",
          "type": "bool"
        }
      ],
      "name": "ApprovalForAll",
      "type": "event"
    },
    {
      "anonymous": false,
      "inputs": [
        {
          "indexed": false,
          "internalType": "uint256",
          "name": "_fromTokenId",
          "type": "uint256"
        },
        {
          "indexed": false,
          "internalType": "uint256",
          "name": "_toTokenId",
          "type": "uint256"
        }
      ],
      "name": "BatchMetadataUpdate",
      "type": "event"
    },
    {
      "anonymous": false,
      "inputs": [
        {
          "indexed": false,
          "internalType": "uint256",
          "name": "_tokenId",
          "type": "uint256"
        }
      ],
      "name": "MetadataUpdate",
      "type": "event"
    },
    {
      "anonymous": false,
      "inputs": [
        {
          "indexed": true,
          "internalType": "address",
          "name": "from",
          "type": "address"
        },
        {
          "indexed": true,
          "internalType": "address",
          "name": "to",
          "type": "address"
        },
        {
          "indexed": true,
          "internalType": "uint256",
          "name": "tokenId",
          "type": "uint256"
        }
      ],
      "name": "Transfer",
      "type": "event"
    },
    {
      "inputs": [
        {
          "internalType": "address",
          "name": "to",
          "type": "address"
        },
        {
          "internalType": "uint256",
          "name": "tokenId",
          "type": "uint256"
        }
      ],
      "name": "approve",
      "outputs": [],
      "stateMutability": "nonpayable",
      "type": "function"
    },
    {
      "inputs": [
        {
          "internalType": "address",
          "name": "owner",
          "type": "address"
        }
      ],
      "name": "balanceOf",
      "outputs": [
        {
          "internalType": "uint256",
          "name": "",
          "type": "uint256"
        }
      ],
      "stateMutability": "view",
      "type": "function"
    },
    {
      "inputs": [
        {
          "internalType": "uint256",
          "name": "tokenId",
          "type": "uint256"
        }
      ],
      "name": "getApproved",
      "outputs": [
        {
          "internalType": "address",
          "name": "",
          "type": "address"
        }
      ],
      "stateMutability": "view",
      "type": "function"
    },
    {
      "inputs": [
        {
          "internalType": "address",
          "name": "owner",
          "type": "address"
        },
        {
          "internalType": "address",
          "name": "operator",
          "type": "address"
        }
      ],
      "name": "isApprovedForAll",
      "outputs": [
        {
          "internalType": "bool",
          "name": "",
          "type": "bool"
        }
      ],
      "stateMutability": "view",
      "type": "function"
    },
    {
      "inputs": [
        {
          "internalType": "string",
          "name": "_tokenURI",
          "type": "string"
        }
      ],
      "name": "mint",
      "outputs": [
        {
          "internalType": "uint256",
          "name": "",
          "type": "uint256"
        }
      ],
      "stateMutability": "nonpayable",
      "type": "function"
    },
    {
      "inputs": [],
      "name": "name",
      "outputs": [
        {
          "internalType": "string",
          "name": "",
          "type": "string"
        }
      ],
      "stateMutability": "view",
      "type": "function"
    },
    {
      "inputs": [
        {
          "internalType": "uint256",
          "name": "tokenId",
          "type": "uint256"
        }
      ],
      "name": "ownerOf",
      "outputs": [
        {
          "internalType": "address",
          "name": "",
          "type": "address"
        }
      ],
      "stateMutability": "view",
      "type": "function"
    },
    {
      "inputs": [
        {
          "internalType": "address",
          "name": "from",
          "type": "address"
        },
        {
          "internalType": "address",
          "name": "to",
          "type": "address"
        },
        {
          "internalType": "uint256",
          "name": "tokenId",
          "type": "uint256"
        }
      ],
      "name": "safeTransferFrom",
      "outputs": [],
      "stateMutability": "nonpayable",
      "type": "function"
    },
    {
      "inputs": [
        {
          "internalType": "address",
          "name": "from",
          "type": "address"
        },
        {
          "internalType": "address",
          "name": "to",
          "type": "address"
        },
        {
          "internalType": "uint256",
          "name": "tokenId",
          "type": "uint256"
        },
        {
          "internalType": "bytes",
          "name": "data",
          "type": "bytes"
        }
      ],
      "name": "safeTransferFrom",
      "outputs": [],
      "stateMutability": "nonpayable",
      "type": "function"
    },
    {
      "inputs": [
        {
          "internalType": "address",
          "name": "operator",
          "type": "address"
        },
        {
          "internalType": "bool",
          "name": "approved",
          "type": "bool"
        }
      ],
      "name": "setApprovalForAll",
      "outputs": [],
      "stateMutability": "nonpayable",
      "type": "function"
    },
    {
      "inputs": [
        {
          "internalType": "bytes4",
          "name": "interfaceId",
          "type": "bytes4"
        }
      ],
      "name": "supportsInterface",
      "outputs": [
        {
          "internalType": "bool",
          "name": "",
          "type": "bool"
        }
      ],
      "stateMutability": "view",
      "type": "function"
    },
    {
      "inputs": [],
      "name": "symbol",
      "outputs": [
        {
          "internalType": "string",
          "name": "",
          "type": "string"
        }
      ],
      "stateMutability": "view",
      "type": "function"
    },
    {
      "inputs": [],
      "name": "tokenCount",
      "outputs": [
        {
          "internalType": "uint256",
          "name": "",
          "type": "uint256"
        }
      ],
      "stateMutability": "view",
      "type": "function"
    },
    {
      "inputs": [
        {
          "internalType": "uint256",
          "name": "tokenId",
          "type": "uint256"
        }
      ],
      "name": "tokenURI",
      "outputs": [
        {
          "internalType": "string",
          "name": "",
          "type": "string"
        }
      ],
      "stateMutability": "view",
      "type": "function"
    },
    {
      "inputs": [
        {
          "internalType": "address",
          "name": "from",
          "type": "address"
        },
        {
          "internalType": "address",
          "name": "to",
          "type": "address"
        },
        {
          "internalType": "uint256",
          "name": "tokenId",
          "type": "uint256"
        }
      ],
      "name": "transferFrom",
      "outputs": [],
      "stateMutability": "nonpayable",
      "type": "function"
    }
  ],
  "bytecode": "0x60806040523480156200001157600080fd5b506040518060400160405280600881526020017f44417070204e46540000000000000000000000000000000000000000000000008152506040518060400160405280600481526020017f4441505000000000000000000000000000000000000000000000000000000000815250816000908051906020019062000096929190620000b8565b508060019080519060200190620000af929190620000b8565b505050620001cd565b828054620000c69062000168565b90600052602060002090601f016020900481019282620000ea576000855562000136565b82601f106200010557805160ff191683800117855562000136565b8280016001018555821562000136579182015b828111156200013557825182559160200191906001019062000118565b5b50905062000145919062000149565b5090565b5b80821115620001645760008160009055506001016200014a565b5090565b600060028204905060018216806200018157607f821691505b602082108114156200019857620001976200019e565b5b50919050565b7f4e487b7100000000000000000000000000000000000000000000000000000000600052602260045260246000fd5b612a2480620001dd6000396000f3fe608060405234801561001057600080fd5b50600436106100f55760003560e01c806370a0823111610097578063b88d4fde11610066578063b88d4fde14610284578063c87b56dd146102a0578063d85d3d27146102d0578063e985e9c514610300576100f5565b806370a08231146101fc57806395d89b411461022c5780639f181b5e1461024a578063a22cb46514610268576100f5565b8063095ea7b3116100d3578063095ea7b31461017857806323b872dd1461019457806342842e0e146101b05780636352211e146101cc576100f5565b806301ffc9a7146100fa57806306fdde031461012a578063081812fc14610148575b600080fd5b610114600480360381019061010f9190611dc2565b610330565b6040516101219190612191565b60405180910390f35b610132610391565b60405161013f91906121ac565b60405180910390f35b610162600480360381019061015d9190611e65565b610423565b60405161016f919061212a565b60405180910390f35b610192600480360381019061018d9190611d82565b610469565b005b6101ae60048036038101906101a99190611c6c565b610581565b005b6101ca60048036038101906101c59190611c6c565b6105e1565b005b6101e660048036038101906101e19190611e65565b610601565b6040516101f3919061212a565b60405180910390f35b61021660048036038101906102119190611bff565b610688565b604051610223919061234e565b60405180910390f35b610234610740565b60405161024191906121ac565b60405180910390f35b6102526107d2565b60405161025f919061234e565b60405180910390f35b610282600480360381019061027d9190611d42565b6107d8565b005b61029e60048036038101906102999190611cbf565b6107ee565b005b6102ba60048036038101906102b59190611e65565b610850565b6040516102c791906121ac565b60405180910390f35b6102ea60048036038101906102e59190611e1c565b610963565b6040516102f7919061234e565b60405180910390f35b61031a60048036038101906103159190611c2c565b61099f565b6040516103279190612191565b60405180910390f35b6000634906490660e01b7bffffffffffffffffffffffffffffffffffffffffffffffffffffffff1916827bffffffffffffffffffffffffffffffffffffffffffffffffffffffff1916148061038a575061038982610a33565b5b9050919050565b6060600080546103a0906124e9565b80601f01602080910402602001604051908101604052809291908181526020018280546103cc906124e9565b80156104195780601f106103ee57610100808354040283529160200191610419565b820191906000526020600020905b8154815290600101906020018083116103fc57829003601f168201915b5050505050905090565b600061042e82610b15565b6004600083815260200190815260200160002060009054906101000a900473ffffffffffffffffffffffffffffffffffffffff169050919050565b600061047482610601565b90508073ffffffffffffffffffffffffffffffffffffffff168373ffffffffffffffffffffffffffffffffffffffff1614156104e5576040517f08c379a00000000000000000000000000000000000000000000000000000000081526004016104dc9061230e565b60405180910390fd5b8073ffffffffffffffffffffffffffffffffffffffff16610504610b60565b73ffffffffffffffffffffffffffffffffffffffff16148061053357506105328161052d610b60565b61099f565b5b610572576040517f08c379a00000000000000000000000000000000000000000000000000000000081526004016105699061232e565b60405180910390fd5b61057c8383610b68565b505050565b61059261058c610b60565b82610c21565b6105d1576040517f08c379a00000000000000000000000000000000000000000000000000000000081526004016105c8906121ce565b60405180910390fd5b6105dc838383610cb6565b505050565b6105fc838383604051806020016040528060008152506107ee565b505050565b60008061060d83610fb0565b9050600073ffffffffffffffffffffffffffffffffffffffff168173ffffffffffffffffffffffffffffffffffffffff16141561067f576040517f08c379a0000000000000000000000000000000000000000000000000000000008152600401610676906122ee565b60405180910390fd5b80915050919050565b60008073ffffffffffffffffffffffffffffffffffffffff168273ffffffffffffffffffffffffffffffffffffffff1614156106f9576040517f08c379a00000000000000000000000000000000000000000000000000000000081526004016106f09061228e565b60405180910390fd5b600360008373ffffffffffffffffffffffffffffffffffffffff1673ffffffffffffffffffffffffffffffffffffffff168152602001908152602001600020549050919050565b60606001805461074f906124e9565b80601f016020809104026020016040519081016040528092919081815260200182805461077b906124e9565b80156107c85780601f1061079d576101008083540402835291602001916107c8565b820191906000526020600020905b8154815290600101906020018083116107ab57829003601f168201915b5050505050905090565b60075481565b6107ea6107e3610b60565b8383610fed565b5050565b6107ff6107f9610b60565b83610c21565b61083e576040517f08c379a0000000000000000000000000000000000000000000000000000000008152600401610835906121ce565b60405180910390fd5b61084a8484848461115a565b50505050565b606061085b82610b15565b600060066000848152602001908152602001600020805461087b906124e9565b80601f01602080910402602001604051908101604052809291908181526020018280546108a7906124e9565b80156108f45780601f106108c9576101008083540402835291602001916108f4565b820191906000526020600020905b8154815290600101906020018083116108d757829003601f168201915b5050505050905060006109056111b6565b905060008151141561091b57819250505061095e565b600082511115610950578082604051602001610938929190612106565b6040516020818303038152906040529250505061095e565b610959846111cd565b925050505b919050565b6000600760008154809291906109789061254c565b919050555061098933600754611235565b61099560075483611253565b6007549050919050565b6000600560008473ffffffffffffffffffffffffffffffffffffffff1673ffffffffffffffffffffffffffffffffffffffff16815260200190815260200160002060008373ffffffffffffffffffffffffffffffffffffffff1673ffffffffffffffffffffffffffffffffffffffff16815260200190815260200160002060009054906101000a900460ff16905092915050565b60007f80ac58cd000000000000000000000000000000000000000000000000000000007bffffffffffffffffffffffffffffffffffffffffffffffffffffffff1916827bffffffffffffffffffffffffffffffffffffffffffffffffffffffff19161480610afe57507f5b5e139f000000000000000000000000000000000000000000000000000000007bffffffffffffffffffffffffffffffffffffffffffffffffffffffff1916827bffffffffffffffffffffffffffffffffffffffffffffffffffffffff1916145b80610b0e5750610b0d826112fe565b5b9050919050565b610b1e81611368565b610b5d576040517f08c379a0000000000000000000000000000000000000000000000000000000008152600401610b54906122ee565b60405180910390fd5b50565b600033905090565b816004600083815260200190815260200160002060006101000a81548173ffffffffffffffffffffffffffffffffffffffff021916908373ffffffffffffffffffffffffffffffffffffffff160217905550808273ffffffffffffffffffffffffffffffffffffffff16610bdb83610601565b73ffffffffffffffffffffffffffffffffffffffff167f8c5be1e5ebec7d5bd14f71427d1e84f3dd0314c0f7b2291e5b200ac8c7c3b92560405160405180910390a45050565b600080610c2d83610601565b90508073ffffffffffffffffffffffffffffffffffffffff168473ffffffffffffffffffffffffffffffffffffffff161480610c6f5750610c6e818561099f565b5b80610cad57508373ffffffffffffffffffffffffffffffffffffffff16610c9584610423565b73ffffffffffffffffffffffffffffffffffffffff16145b91505092915050565b8273ffffffffffffffffffffffffffffffffffffffff16610cd682610601565b73ffffffffffffffffffffffffffffffffffffffff1614610d2c576040517f08c379a0000000000000000000000000000000000000000000000000000000008152600401610d239061220e565b60405180910390fd5b600073ffffffffffffffffffffffffffffffffffffffff168273ffffffffffffffffffffffffffffffffffffffff161415610d9c576040517f08c379a0000000000000000000000000000000000000000000000000000000008152600401610d939061224e565b60405180910390fd5b610da983838360016113a9565b8273ffffffffffffffffffffffffffffffffffffffff16610dc982610601565b73ffffffffffffffffffffffffffffffffffffffff1614610e1f576040517f08c379a0000000000000000000000000000000000000000000000000000000008152600401610e169061220e565b60405180910390fd5b6004600082815260200190815260200160002060006101000a81549073ffffffffffffffffffffffffffffffffffffffff02191690556001600360008573ffffffffffffffffffffffffffffffffffffffff1673ffffffffffffffffffffffffffffffffffffffff168152602001908152602001600020600082825403925050819055506001600360008473ffffffffffffffffffffffffffffffffffffffff1673ffffffffffffffffffffffffffffffffffffffff16815260200190815260200160002060008282540192505081905550816002600083815260200190815260200160002060006101000a81548173ffffffffffffffffffffffffffffffffffffffff021916908373ffffffffffffffffffffffffffffffffffffffff160217905550808273ffffffffffffffffffffffffffffffffffffffff168473ffffffffffffffffffffffffffffffffffffffff167fddf252ad1be2c89b69c2b068fc378daa952ba7f163c4a11628f55a4df523b3ef60405160405180910390a4610fab83838360016113af565b505050565b60006002600083815260200190815260200160002060009054906101000a900473ffffffffffffffffffffffffffffffffffffffff169050919050565b8173ffffffffffffffffffffffffffffffffffffffff168373ffffffffffffffffffffffffffffffffffffffff16141561105c576040517f08c379a00000000000000000000000000000000000000000000000000000000081526004016110539061226e565b60405180910390fd5b80600560008573ffffffffffffffffffffffffffffffffffffffff1673ffffffffffffffffffffffffffffffffffffffff16815260200190815260200160002060008473ffffffffffffffffffffffffffffffffffffffff1673ffffffffffffffffffffffffffffffffffffffff16815260200190815260200160002060006101000a81548160ff0219169083151502179055508173ffffffffffffffffffffffffffffffffffffffff168373ffffffffffffffffffffffffffffffffffffffff167f17307eab39ab6107e8899845ad3d59bd9653f200f220920489ca2b5937696c318360405161114d9190612191565b60405180910390a3505050565b611165848484610cb6565b611171848484846113b5565b6111b0576040517f08c379a00000000000000000000000000000000000000000000000000000000081526004016111a7906121ee565b60405180910390fd5b50505050565b606060405180602001604052806000815250905090565b60606111d882610b15565b60006111e26111b6565b90506000815111611202576040518060200160405280600081525061122d565b8061120c8461154c565b60405160200161121d929190612106565b6040516020818303038152906040525b915050919050565b61124f828260405180602001604052806000815250611624565b5050565b61125c82611368565b61129b576040517f08c379a0000000000000000000000000000000000000000000000000000000008152600401611292906122ae565b60405180910390fd5b806006600084815260200190815260200160002090805190602001906112c2929190611a13565b507ff8e1a15aba9398e019f0b49df1a4fde98ee17ae345cb5f6b5e2c27f5033e8ce7826040516112f2919061234e565b60405180910390a15050565b60007f01ffc9a7000000000000000000000000000000000000000000000000000000007bffffffffffffffffffffffffffffffffffffffffffffffffffffffff1916827bffffffffffffffffffffffffffffffffffffffffffffffffffffffff1916149050919050565b60008073ffffffffffffffffffffffffffffffffffffffff1661138a83610fb0565b73ffffffffffffffffffffffffffffffffffffffff1614159050919050565b50505050565b50505050565b60006113d68473ffffffffffffffffffffffffffffffffffffffff1661167f565b1561153f578373ffffffffffffffffffffffffffffffffffffffff1663150b7a026113ff610b60565b8786866040518563ffffffff1660e01b81526004016114219493929190612145565b602060405180830381600087803b15801561143b57600080fd5b505af192505050801561146c57506040513d601f19601f820116820180604052508101906114699190611def565b60015b6114ef573d806000811461149c576040519150601f19603f3d011682016040523d82523d6000602084013e6114a1565b606091505b506000815114156114e7576040517f08c379a00000000000000000000000000000000000000000000000000000000081526004016114de906121ee565b60405180910390fd5b805181602001fd5b63150b7a0260e01b7bffffffffffffffffffffffffffffffffffffffffffffffffffffffff1916817bffffffffffffffffffffffffffffffffffffffffffffffffffffffff191614915050611544565b600190505b949350505050565b60606000600161155b846116a2565b01905060008167ffffffffffffffff81111561157a57611579612622565b5b6040519080825280601f01601f1916602001820160405280156115ac5781602001600182028036833780820191505090505b509050600082602001820190505b600115611619578080600190039150507f3031323334353637383961626364656600000000000000000000000000000000600a86061a8153600a8581611603576116026125c4565b5b049450600085141561161457611619565b6115ba565b819350505050919050565b61162e83836117f5565b61163b60008484846113b5565b61167a576040517f08c379a0000000000000000000000000000000000000000000000000000000008152600401611671906121ee565b60405180910390fd5b505050565b6000808273ffffffffffffffffffffffffffffffffffffffff163b119050919050565b600080600090507a184f03e93ff9f4daa797ed6e38ed64bf6a1f0100000000000000008310611700577a184f03e93ff9f4daa797ed6e38ed64bf6a1f01000000000000000083816116f6576116f56125c4565b5b0492506040810190505b6d04ee2d6d415b85acef8100000000831061173d576d04ee2d6d415b85acef81000000008381611733576117326125c4565b5b0492506020810190505b662386f26fc10000831061176c57662386f26fc100008381611762576117616125c4565b5b0492506010810190505b6305f5e1008310611795576305f5e100838161178b5761178a6125c4565b5b0492506008810190505b61271083106117ba5761271083816117b0576117af6125c4565b5b0492506004810190505b606483106117dd57606483816117d3576117d26125c4565b5b0492506002810190505b600a83106117ec576001810190505b80915050919050565b600073ffffffffffffffffffffffffffffffffffffffff168273ffffffffffffffffffffffffffffffffffffffff161415611865576040517f08c379a000000000000000000000000000000000000000000000000000000000815260040161185c906122ce565b60405180910390fd5b61186e81611368565b156118ae576040517f08c379a00000000000000000000000000000000000000000000000000000000081526004016118a59061222e565b60405180910390fd5b6118bc6000838360016113a9565b6118c581611368565b15611905576040517f08c379a00000000000000000000000000000000000000000000000000000000081526004016118fc9061222e565b60405180910390fd5b6001600360008473ffffffffffffffffffffffffffffffffffffffff1673ffffffffffffffffffffffffffffffffffffffff16815260200190815260200160002060008282540192505081905550816002600083815260200190815260200160002060006101000a81548173ffffffffffffffffffffffffffffffffffffffff021916908373ffffffffffffffffffffffffffffffffffffffff160217905550808273ffffffffffffffffffffffffffffffffffffffff16600073ffffffffffffffffffffffffffffffffffffffff167fddf252ad1be2c89b69c2b068fc378daa952ba7f163c4a11628f55a4df523b3ef60405160405180910390a4611a0f6000838360016113af565b5050565b828054611a1f906124e9565b90600052602060002090601f016020900481019282611a415760008555611a88565b82601f10611a5a57805160ff1916838001178555611a88565b82800160010185558215611a88579182015b82811115611a87578251825591602001919060010190611a6c565b5b509050611a959190611a99565b5090565b5b80821115611ab2576000816000905550600101611a9a565b5090565b6000611ac9611ac48461238e565b612369565b905082815260208101848484011115611ae557611ae4612656565b5b611af08482856124a7565b509392505050565b6000611b0b611b06846123bf565b612369565b905082815260208101848484011115611b2757611b26612656565b5b611b328482856124a7565b509392505050565b600081359050611b4981612992565b92915050565b600081359050611b5e816129a9565b92915050565b600081359050611b73816129c0565b92915050565b600081519050611b88816129c0565b92915050565b600082601f830112611ba357611ba2612651565b5b8135611bb3848260208601611ab6565b91505092915050565b600082601f830112611bd157611bd0612651565b5b8135611be1848260208601611af8565b91505092915050565b600081359050611bf9816129d7565b92915050565b600060208284031215611c1557611c14612660565b5b6000611c2384828501611b3a565b91505092915050565b60008060408385031215611c4357611c42612660565b5b6000611c5185828601611b3a565b9250506020611c6285828601611b3a565b9150509250929050565b600080600060608486031215611c8557611c84612660565b5b6000611c9386828701611b3a565b9350506020611ca486828701611b3a565b9250506040611cb586828701611bea565b9150509250925092565b60008060008060808587031215611cd957611cd8612660565b5b6000611ce787828801611b3a565b9450506020611cf887828801611b3a565b9350506040611d0987828801611bea565b925050606085013567ffffffffffffffff811115611d2a57611d2961265b565b5b611d3687828801611b8e565b91505092959194509250565b60008060408385031215611d5957611d58612660565b5b6000611d6785828601611b3a565b9250506020611d7885828601611b4f565b9150509250929050565b60008060408385031215611d9957611d98612660565b5b6000611da785828601611b3a565b9250506020611db885828601611bea565b9150509250929050565b600060208284031215611dd857611dd7612660565b5b6000611de684828501611b64565b91505092915050565b600060208284031215611e0557611e04612660565b5b6000611e1384828501611b79565b91505092915050565b600060208284031215611e3257611e31612660565b5b600082013567ffffffffffffffff811115611e5057611e4f61265b565b5b611e5c84828501611bbc565b91505092915050565b600060208284031215611e7b57611e7a612660565b5b6000611e8984828501611bea565b91505092915050565b611e9b81612433565b82525050565b611eaa81612445565b82525050565b6000611ebb826123f0565b611ec58185612406565b9350611ed58185602086016124b6565b611ede81612665565b840191505092915050565b6000611ef4826123fb565b611efe8185612417565b9350611f0e8185602086016124b6565b611f1781612665565b840191505092915050565b6000611f2d826123fb565b611f378185612428565b9350611f478185602086016124b6565b80840191505092915050565b6000611f60602d83612417565b9150611f6b82612676565b604082019050919050565b6000611f83603283612417565b9150611f8e826126c5565b604082019050919050565b6000611fa6602583612417565b9150611fb182612714565b604082019050919050565b6000611fc9601c83612417565b9150611fd482612763565b602082019050919050565b6000611fec602483612417565b9150611ff78261278c565b604082019050919050565b600061200f601983612417565b915061201a826127db565b602082019050919050565b6000612032602983612417565b915061203d82612804565b604082019050919050565b6000612055602e83612417565b915061206082612853565b604082019050919050565b6000612078602083612417565b9150612083826128a2565b602082019050919050565b600061209b601883612417565b91506120a6826128cb565b602082019050919050565b60006120be602183612417565b91506120c9826128f4565b604082019050919050565b60006120e1603d83612417565b91506120ec82612943565b604082019050919050565b6121008161249d565b82525050565b60006121128285611f22565b915061211e8284611f22565b91508190509392505050565b600060208201905061213f6000830184611e92565b92915050565b600060808201905061215a6000830187611e92565b6121676020830186611e92565b61217460408301856120f7565b81810360608301526121868184611eb0565b905095945050505050565b60006020820190506121a66000830184611ea1565b92915050565b600060208201905081810360008301526121c68184611ee9565b905092915050565b600060208201905081810360008301526121e781611f53565b9050919050565b6000602082019050818103600083015261220781611f76565b9050919050565b6000602082019050818103600083015261222781611f99565b9050919050565b6000602082019050818103600083015261224781611fbc565b9050919050565b6000602082019050818103600083015261226781611fdf565b9050919050565b6000602082019050818103600083015261228781612002565b9050919050565b600060208201905081810360008301526122a781612025565b9050919050565b600060208201905081810360008301526122c781612048565b9050919050565b600060208201905081810360008301526122e78161206b565b9050919050565b600060208201905081810360008301526123078161208e565b9050919050565b60006020820190508181036000830152612327816120b1565b9050919050565b60006020820190508181036000830152612347816120d4565b9050919050565b600060208201905061236360008301846120f7565b92915050565b6000612373612384565b905061237f828261251b565b919050565b6000604051905090565b600067ffffffffffffffff8211156123a9576123a8612622565b5b6123b282612665565b9050602081019050919050565b600067ffffffffffffffff8211156123da576123d9612622565b5b6123e382612665565b9050602081019050919050565b600081519050919050565b600081519050919050565b600082825260208201905092915050565b600082825260208201905092915050565b600081905092915050565b600061243e8261247d565b9050919050565b60008115159050919050565b60007fffffffff0000000000000000000000000000000000000000000000000000000082169050919050565b600073ffffffffffffffffffffffffffffffffffffffff82169050919050565b6000819050919050565b82818337600083830152505050565b60005b838110156124d45780820151818401526020810190506124b9565b838111156124e3576000848401525b50505050565b6000600282049050600182168061250157607f821691505b60208210811415612515576125146125f3565b5b50919050565b61252482612665565b810181811067ffffffffffffffff8211171561254357612542612622565b5b80604052505050565b60006125578261249d565b91507fffffffffffffffffffffffffffffffffffffffffffffffffffffffffffffffff82141561258a57612589612595565b5b600182019050919050565b7f4e487b7100000000000000000000000000000000000000000000000000000000600052601160045260246000fd5b7f4e487b7100000000000000000000000000000000000000000000000000000000600052601260045260246000fd5b7f4e487b7100000000000000000000000000000000000000000000000000000000600052602260045260246000fd5b7f4e487b7100000000000000000000000000000000000000000000000000000000600052604160045260246000fd5b600080fd5b600080fd5b600080fd5b600080fd5b6000601f19601f8301169050919050565b7f4552433732313a2063616c6c6572206973206e6f7420746f6b656e206f776e6560008201527f72206f7220617070726f76656400000000000000000000000000000000000000602082015250565b7f4552433732313a207472616e7366657220746f206e6f6e20455243373231526560008201527f63656976657220696d706c656d656e7465720000000000000000000000000000602082015250565b7f4552433732313a207472616e736665722066726f6d20696e636f72726563742060008201527f6f776e6572000000000000000000000000000000000000000000000000000000602082015250565b7f4552433732313a20746f6b656e20616c7265616479206d696e74656400000000600082015250565b7f4552433732313a207472616e7366657220746f20746865207a65726f2061646460008201527f7265737300000000000000000000000000000000000000000000000000000000602082015250565b7f4552433732313a20617070726f766520746f2063616c6c657200000000000000600082015250565b7f4552433732313a2061646472657373207a65726f206973206e6f74206120766160008201527f6c6964206f776e65720000000000000000000000000000000000000000000000602082015250565b7f45524337323155524953746f726167653a2055524920736574206f66206e6f6e60008201527f6578697374656e7420746f6b656e000000000000000000000000000000000000602082015250565b7f4552433732313a206d696e7420746f20746865207a65726f2061646472657373600082015250565b7f4552433732313a20696e76616c696420746f6b656e2049440000000000000000600082015250565b7f4552433732313a20617070726f76616c20746f2063757272656e74206f776e6560008201527f7200000000000000000000000000000000000000000000000000000000000000602082015250565b7f4552433732313a20617070726f76652063616c6c6572206973206e6f7420746f60008201527f6b656e206f776e6572206f7220617070726f76656420666f7220616c6c000000602082015250565b61299b81612433565b81146129a657600080fd5b50565b6129b281612445565b81146129bd57600080fd5b50565b6129c981612451565b81146129d457600080fd5b50565b6129e08161249d565b81146129eb57600080fd5b5056fea2646970667358221220ed42f64c139ae69fba539a19e09fcf49acc9b40b2724a84a3e349fb18dc4307c64736f6c63430008050033",
  "linkReferences": {},
  "deployedLinkReferences": {}
}